{
  "contractName": "Voting",
  "abi": [
    {
      "constant": true,
      "inputs": [
        {
          "name": "",
          "type": "uint256"
        }
      ],
      "name": "proposals",
      "outputs": [
        {
          "name": "id",
          "type": "uint256"
        },
        {
          "name": "name",
          "type": "string"
        },
        {
          "name": "voteCount",
          "type": "uint256"
        }
      ],
      "payable": false,
      "stateMutability": "view",
      "type": "function",
      "signature": "0x013cf08b"
    },
    {
      "constant": true,
      "inputs": [],
      "name": "proposalCount",
      "outputs": [
        {
          "name": "",
          "type": "uint256"
        }
      ],
      "payable": false,
      "stateMutability": "view",
      "type": "function",
      "signature": "0xda35c664"
    },
    {
      "inputs": [],
      "payable": false,
      "stateMutability": "nonpayable",
      "type": "constructor",
      "signature": "constructor"
    },
    {
      "anonymous": false,
      "inputs": [
        {
          "indexed": false,
          "name": "id",
          "type": "uint256"
        },
        {
          "indexed": false,
          "name": "name",
          "type": "string"
        },
        {
          "indexed": false,
          "name": "voteCount",
          "type": "uint256"
        }
      ],
      "name": "ProposalCreated",
      "type": "event",
      "signature": "0xf5dc0da9afa6d080780a49fd8c680f03d2ddf3c067cd6d0c85360c096644d2d3"
    },
    {
      "anonymous": false,
      "inputs": [
        {
          "indexed": false,
          "name": "id",
          "type": "uint256"
        },
        {
          "indexed": false,
          "name": "voteCount",
          "type": "uint256"
        }
      ],
      "name": "Voted",
      "type": "event",
      "signature": "0x84a5508ca0d85b42a876e75a9126f3ae7b43617ce60b170bf8805d34630bc654"
    },
    {
      "constant": false,
      "inputs": [
        {
          "name": "_name",
          "type": "string"
        }
      ],
      "name": "createProposal",
      "outputs": [],
      "payable": false,
      "stateMutability": "nonpayable",
      "type": "function",
      "signature": "0x49c2a1a6"
    },
    {
      "constant": false,
      "inputs": [
        {
          "name": "_id",
          "type": "uint256"
        }
      ],
      "name": "vote",
      "outputs": [],
      "payable": false,
      "stateMutability": "nonpayable",
      "type": "function",
      "signature": "0x0121b93f"
    },
    {
      "constant": true,
      "inputs": [
        {
          "name": "_id",
          "type": "uint256"
        }
      ],
      "name": "getProposal",
      "outputs": [
        {
          "name": "",
          "type": "uint256"
        },
        {
          "name": "",
          "type": "string"
        },
        {
          "name": "",
          "type": "uint256"
        }
      ],
      "payable": false,
      "stateMutability": "view",
      "type": "function",
      "signature": "0xc7f758a8"
    }
  ],
  "bytecode": "0x60806040526000805534801561001457600080fd5b5061072b806100246000396000f3fe60806040526004361061006c5763ffffffff7c01000000000000000000000000000000000000000000000000000000006000350416630121b93f8114610071578063013cf08b1461009d57806349c2a1a61461014d578063c7f758a814610200578063da35c6641461022a575b600080fd5b34801561007d57600080fd5b5061009b6004803603602081101561009457600080fd5b5035610251565b005b3480156100a957600080fd5b506100c7600480360360208110156100c057600080fd5b50356103a1565b6040518084815260200180602001838152602001828103825284818151815260200191508051906020019080838360005b838110156101105781810151838201526020016100f8565b50505050905090810190601f16801561013d5780820380516001836020036101000a031916815260200191505b5094505050505060405180910390f35b34801561015957600080fd5b5061009b6004803603602081101561017057600080fd5b81019060208101813564010000000081111561018b57600080fd5b82018360208201111561019d57600080fd5b803590602001918460018302840111640100000000831117156101bf57600080fd5b91908080601f01602080910402602001604051908101604052809392919081815260200183838082843760009201919091525092955061044d945050505050565b34801561020c57600080fd5b506100c76004803603602081101561022357600080fd5b5035610557565b34801561023657600080fd5b5061023f61063c565b60408051918252519081900360200190f35b610259610642565b60008281526001602081815260409283902083516060810185528154815281840180548651600296821615610100026000190190911695909504601f810185900485028601850190965285855290949193858401939092908301828280156103025780601f106102d757610100808354040283529160200191610302565b820191906000526020600020905b8154815290600101906020018083116102e557829003601f168201915b505050918352505060029190910154602091820152604080830180516001908101909152600086815281845291909120835181558383015180519495508594919361035293850192910190610664565b50604091820151600290910155818101518151848152602081019190915281517f84a5508ca0d85b42a876e75a9126f3ae7b43617ce60b170bf8805d34630bc654929181900390910190a15050565b600160208181526000928352604092839020805481840180548651600296821615610100026000190190911695909504601f8101859004850286018501909652858552909491939290919083018282801561043d5780601f106104125761010080835404028352916020019161043d565b820191906000526020600020905b81548152906001019060200180831161042057829003601f168201915b5050505050908060020154905083565b600080546001908101808355604080516060810182528281526020808201878152828401879052938652848152919094208451815591518051929361049a93908501929190910190610664565b50604082015181600201559050507ff5dc0da9afa6d080780a49fd8c680f03d2ddf3c067cd6d0c85360c096644d2d36000548260006040518084815260200180602001838152602001828103825284818151815260200191508051906020019080838360005b83811015610518578181015183820152602001610500565b50505050905090810190601f1680156105455780820380516001836020036101000a031916815260200191505b5094505050505060405180910390a150565b600060606000610565610642565b60008581526001602081815260409283902083516060810185528154815281840180548651600296821615610100026000190190911695909504601f8101859004850286018501909652858552909491938584019390929083018282801561060e5780601f106105e35761010080835404028352916020019161060e565b820191906000526020600020905b8154815290600101906020018083116105f157829003601f168201915b5050509183525050600291909101546020918201528151908201516040909201519097919650945092505050565b60005481565b6060604051908101604052806000815260200160608152602001600081525090565b828054600181600116156101000203166002900490600052602060002090601f016020900481019282601f106106a557805160ff19168380011785556106d2565b828001600101855582156106d2579182015b828111156106d25782518255916020019190600101906106b7565b506106de9291506106e2565b5090565b6106fc91905b808211156106de57600081556001016106e8565b9056fea165627a7a723058206ec5bb63e1ffb67c8baf5290035d15e18dec76a48f2e597799d679cbe93d4c530029",
  "source": "pragma solidity ^0.5.0;\r\n\r\ncontract Voting {\r\n    uint public proposalCount = 0;\r\n\r\n    struct Proposal {\r\n        uint id;\r\n        string name;\r\n        uint voteCount;\r\n    }\r\n\r\n    mapping(uint => Proposal) public proposals;\r\n\r\n    event ProposalCreated(\r\n        uint id,\r\n        string name,\r\n        uint voteCount\r\n    );\r\n\r\n    event Voted(\r\n        uint id,\r\n        uint voteCount\r\n    );\r\n\r\n    constructor() public {\r\n    }\r\n\r\n    function createProposal(string memory _name) public {\r\n        proposalCount++;\r\n        proposals[proposalCount] = Proposal(proposalCount, _name, 0);\r\n        emit ProposalCreated(proposalCount, _name, 0);\r\n    }\r\n\r\n    function vote(uint _id) public {\r\n        Proposal memory _proposal = proposals[_id];\r\n        _proposal.voteCount++;\r\n        proposals[_id] = _proposal;\r\n        emit Voted(_id, _proposal.voteCount);\r\n    }\r\n\r\n    function getProposal(uint _id) public view returns (uint, string memory, uint) {\r\n        Proposal memory _proposal = proposals[_id];\r\n        return (_proposal.id, _proposal.name, _proposal.voteCount);\r\n    }\r\n}\r\n",
  "sourcePath": "C:/Users/luluc/OneDrive/Bureau/Estiam/E4/Blockchain/eth-voting-app/contracts/Voting.sol",
  "compiler": {
    "name": "solc",
    "version": "0.5.0+commit.1d4f565a.Emscripten.clang"
  },
  "schemaVersion": "3.0.1",
  "updatedAt": "2024-06-21T13:50:53.534Z",
  "devdoc": {
    "methods": {}
  },
  "userdoc": {
    "methods": {}
  }
}